:020000040800F2
:1000000000000220ED0400083D0500083D05000841
:100010003D0500083D0500083D0500080000000002
:100020000000000000000000000000003D05000886
:100030003D050008000000003D0500083D050008E2
:100040003D0500083D0500083D0500083D05000888
:10005000000000003D0500083D0500083D050008C2
:100060003D0500083D0500083D0500083D05000868
:100070003D0500083D0500083D0500083D05000858
:100080003D0500083D0500083D0500083D05000848
:100090003D0500083D0500083D0500083D05000838
:1000A0003D0500083D0500083D0500083D05000828
:1000B0003D0500083D0500083D0500083D05000818
:1000C0003D0500083D0500083D0500083D05000808
:1000D0003D0500083D0500083D0500083D050008F8
:1000E0003D0500083D0500083D0500083D050008E8
:1000F0003D0500083D0500083D0500083D050008D8
:100100003D0500083D0500083D0500083D050008C7
:100110003D0500083D0500083D0500083D050008B7
:100120003D0500083D0500083D0500083D050008A7
:100130003D0500083D0500083D0500083D05000897
:100140003D0500083D0500083D0500083D05000887
:100150003D0500083D0500083D0500083D05000877
:100160003D0500083D0500083D0500083D05000867
:100170003D0500083D0500083D0500083D05000857
:100180003D0500083D0500080000000000000000DB
:10019000000000000000000000000000000000005F
:0801A0003D0500083D050008C3
:1001B00010B5054C237833B9044B13B10448AFF3A1
:1001C00000800123237010BD780000200000000093
:1001D000B822000808B5034B1BB103490348AFF32D
:1001E000008008BD000000007C000020B82200084C
:1001F00001F0FF01102A2BDB10F0070F08D010F8D8
:10020000013B013A8B422DD010F0070F42B3F6D1DB
:10021000F0B441EA012141EA014122F007047FF0F4
:1002200000070023F0E80256083C85EA010586EA4B
:10023000010685FA47F5A3FA87F586FA47F6A5FA87
:1002400087F68EB9EED1F0BC01F0FF0102F0070293
:1002500032B110F8013B013A83EA010313B1F8D13E
:100260000020704701387047002D06BF354603381F
:10027000073815F0010F07D1013015F4807F02BF58
:10028000013015F4C03F0130F0BC0138704700BFA9
:1002900080B500AF0F4B0122DA700E4B09221A70A5
:1002A0000C4B01225A700B4B16229A700A4B0022FB
:1002B0001A70094B34225A70074B0A229A70064B67
:1002C0000122DA70034800F0D4FA034800F036FA4D
:1002D00000BF80BDA0000020A400002090B583B026
:1002E00000AF234801F064F800F000FA0346002B49
:1002F00003D0204801F05CF8FEE7FFF7C9FF1E4875
:1003000000F0E7FA1D4800F062FA1C4BDB78022B84
:1003100011D01A4BDB78002B01D0194B00E0194BA0
:100320007B60164800F072F803467A681946164852
:1003300000F0B8FF07E0114800F068F803461946DE
:10034000124800F0AFFF0C4800F089F804460A4B51
:10035000DB78184600F0ACF803461A4621460C48F4
:1003600000F0A0FF002318460C37BD4690BD00BF2B
:100370001423000820230008A0000020A40000206F
:1003800034230008382300083C23000854230008C5
:100390006823000880B483B000AF03463960FB7166
:1003A000FB79092B09D83B6830221A703B6801336E
:1003B000FA793032D2B21A701FE0FB79092B1CD9BE
:1003C000FB79622B19D8FB790F4AA2FB0323DB08C8
:1003D000DBB23033DAB23B681A70FA790A4BA3FB0E
:1003E0000213D9080B469B000B445B00D31ADAB208
:1003F0003B6801333032D2B21A7000BF0C37BD46B1
:100400005DF8047B704700BFCDCCCCCC80B586B006
:1004100000AF78603A23BB733A237B747B689B7888
:1004200007F10C0211461846FFF7B4FF7B685A78B3
:1004300007F10C03033319461046FFF7ABFF7B6847
:100440001A7807F10C03063319461046FFF7A2FF8E
:1004500000233B75002318461837BD4680BD80B584
:1004600086B000AF78602F23BB732F237B747B682B
:100470001B7807F10C0211461846FFF78BFF7B68CB
:100480005A7807F10C03033319461046FFF782FF31
:100490007B689A7807F10C03063319461046FFF77C
:1004A00079FF00233B75002318461837BD4680BDF1
:1004B000B0B48BB000AF0346FB710B4B07F10C04DB
:1004C0001D460FCD0FC495E8070084E80700FB79AF
:1004D000013B9B0007F12802134453F81C3C1846CB
:1004E0002C37BD46B0BC7047802300080D488546B8
:1004F000AFF300800C480D490D4A002302E0D458A8
:10050000C4500433C4188C42F9D30A4A0A4C00235D
:1005100001E013600432A242FBD300F097FEFFF724
:10052000DDFEFEE700000220000000207800002031
:100530003C24000878000020DC000020FEE70000DA
:1005400080B586B000AF07F10C030C2200211846DD
:1005500000F0A0FE3B460C220021184600F09AFE57
:10056000144BFB6007233B7402237B7404237B75CD
:1005700001233B750123FB740223BB7407F10C03B9
:10058000184600F0DBF90B4B3B6008233B7102235C
:100590007B7104237B7201233B720123FB710223D5
:1005A000BB713B46184600F0C9F900BF1837BD467D
:1005B00080BD00BF0004024080B500AF064B074A73
:1005C0001A60054B01229A71034BA0221A7102484E
:1005D00000F072FC00BF80BDA80000200054004065
:1005E00080B586B002AF03460A46FB711346BB7165
:1005F000BB793B73FB797B7307F10C0100230093FC
:1006000068230222034800F0CFFC00BF1037BD462C
:1006100080BD00BFA800002080B586B002AF0346B1
:10062000FB71F91D0123009368230122084800F0A3
:10063000BBFC07F10F01002300936823012204484B
:1006400000F011FDFB7B18461037BD4680BD00BF92
:10065000A800002080B485B000AF0346FB710023E2
:10066000BB7300237B73FB79092B19D9FA79114BE2
:10067000A3FB0213D9080B469B000B445B00D31A63
:10068000BB73FB790B4AA2FB0323DB087B73BB7BA9
:100690001B015AB297F90D3013435BB2FB7301E0B3
:1006A000FB79FB73FB7B18461437BD465DF8047B72
:1006B000704700BFCDCCCCCC80B485B000AF034632
:1006C000FB71FB791B09DBB21A46920013445B00F5
:1006D000DAB2FB7903F00F03DBB21344FB73FB7B4D
:1006E00018461437BD465DF8047B704780B582B06C
:1006F00000AFFFF725FFFFF75FFF0F4B1B680121DE
:10070000184600F0BDFB0C4B1B681A680A4B1B68AF
:1007100042F480621A6000210020FFF761FF002090
:10072000FFF77AFF0346FB71FB79DB09DBB2184662
:100730000837BD4680BD00BFA800002080B584B04A
:1007400000AF78607B681B781846FFF783FF03468D
:10075000BB73BB7B03F07F03BB73BB7B00211846DD
:10076000FFF73EFF7B685B781846FFF773FF034691
:1007700001211846FFF734FF7B689B781846FFF786
:1007800069FF0346FB737B68DB78022B04D1FB7B9C
:1007900023F04003FB7311E0FB7B43F04003FB734A
:1007A0007B68DB78012B04D1FB7B43F02003DBB2B9
:1007B00003E0FB7B23F02003DBB2FB73FB7B022116
:1007C0001846FFF70DFF00BF1037BD4680BD80B54E
:1007D00084B000AF78600020FFF71EFF0346BB73B4
:1007E000BB7B03F07F03BB73BB7B1846FFF764FF43
:1007F00003461A467B681A700120FFF70DFF034677
:100800001846FFF759FF03461A467B685A700220C4
:10081000FFF702FF03461846FFF74EFF0346FB7340
:10082000FB7B03F04003002B14D0FB7B03F0200381
:10083000002B07D07B680122DA70FB7B23F060037A
:10084000FB730AE07B680022DA70FB7B23F0600315
:10085000FB7302E07B680222DA70FB7B1846FFF72D
:100860002BFF03461A467B689A7000BF1037BD46BF
:1008700080BD80B582B000AF78607B68DB781846B9
:10088000FFF7E8FE034603211846FFF7A9FE7B6841
:100890001B781846FFF7DEFE034604211846FFF7D3
:1008A0009FFE7B685B781846FFF7D4FE0346052160
:1008B0001846FFF795FE7B689B781846FFF7CAFE3F
:1008C000034606211846FFF78BFE00BF0837BD46DA
:1008D00080BD80B582B000AF78600320FFF79CFE3A
:1008E00003461846FFF7E8FE03461A467B68DA70AF
:1008F0000420FFF791FE03461846FFF7DDFE03468E
:100900001A467B681A700520FFF786FE03461846D4
:10091000FFF7D2FE03461A467B685A700620FFF79F
:100920007BFE03461846FFF7C7FE03461A467B6860
:100930009A7000BF0837BD4680BD000080B586B004
:1009400000AF786000237B617B681B68012118463B
:1009500000F078F97B685B79032B20D87B685B79A2
:100960001A467B681B795B0002FA03F37B617B68A4
:100970001B681A687B681B795B00032101FA03F38B
:10098000DB4319467B681B680A401A607B681B685A
:1009900019687B681B687A690A431A60A1E07B6862
:1009A0005B79042B17D19F4BDB687A68127911466B
:1009B00001228A4011469B4A0B43D360994B9B68A6
:1009C0007A681279114601228A40D2431146954A2B
:1009D0000B40936035E07B685B79052B17D1914B19
:1009E0009B687A681279114601228A4011468D4A25
:1009F0000B4393608B4BDB687A68127911460122B6
:100A00008A40D2431146874A0B40D36019E07B6885
:100A10005B79062B15D1834BDB687A681279114616
:100A200001228A4011467F4A0B43D3607D4B9B686D
:100A30007A681279114601228A401146794A0B439D
:100A400093607B681B799B08FB747B681B7903F0C0
:100A50000303BB747B681B68734A93421DD07B6899
:100A60001B68724A934216D07B681B68704A934297
:100A70000FD07B681B686F4A934208D07B681B6865
:100A80006D4A934201D1042308E0002306E00323CA
:100A900004E0022302E0012300E000237B74674BA3
:100AA0005B6C664A43F480435364654AFB7C0233C3
:100AB00052F82320797CBB7C9B0001FA03F3184693
:100AC0005F49FB7C0243023341F82320554B1B68EE
:100AD0007A681279114601228A401146514A0B4325
:100AE000136000237B617B689B791A467B681B79C6
:100AF0005B0002FA03F37B617B681B689A687B6882
:100B00001B795B00032101FA03F3DB4319467B6881
:100B10001B680A409A607B681B6899687B681B6841
:100B20007A690A439A6000237B617B68DB791A4605
:100B30007B681B795B0002FA03F37B617B681B68AF
:100B4000DA687B681B795B00032101FA03F3DB435E
:100B500019467B681B680A40DA607B681B68D968A5
:100B60007B681B687A690A43DA6000237B617B68D3
:100B70001B7A1A467B681B7902FA03F37B617B6858
:100B80001B685A687B681B79194601238B40DB433D
:100B900019467B681B680A405A607B681B68596865
:100BA0007B681B687A690A435A6000237B617B6813
:100BB0005B79022B31D17B681B79DB083B747B6846
:100BC0001B7903F00703FB737B681B683A7C0832D0
:100BD00053F82210FB7B9B000F2202FA03F3DB4346
:100BE00018467B681B683A7C0140083243F82210A3
:100BF0007B681B683A7C083253F822107B685B7A6A
:100C00001A46FB7B9B0002FA03F318467B681B68BD
:100C10003A7C0143083243F8221000BF1837BD4622
:100C200080BD00BF003C01400000024000040240C3
:100C300000080240000C0240001002400038024050
:100C40000038014080B483B000AF78600B46FB7081
:100C5000FB78012B36D17B68384A934206D1384B5A
:100C60001B6B374A43F00103136361E07B68354A2D
:100C7000934206D1324B1B6B314A43F0020313639C
:100C800056E07B68304A934206D12D4B1B6B2C4AB1
:100C900043F0040313634BE07B682C4A934206D174
:100CA000274B1B6B264A43F00803136340E07B6825
:100CB000274A93423CD1224B1B6B214A43F010033D
:100CC000136335E07B681D4A934206D11C4B1B6BB6
:100CD0001B4A23F0010313632AE07B68194A9342FD
:100CE00006D1174B1B6B164A23F0020313631FE058
:100CF0007B68154A934206D1114B1B6B104A23F0B7
:100D00000403136314E07B68104A934206D10C4B32
:100D10001B6B0B4A23F00803136309E07B680C4A42
:100D2000934205D1064B1B6B054A23F01003136356
:100D300000BF0C37BD465DF8047B704700000240E1
:100D4000003802400004024000080240000C02404B
:100D50000010024080B485B000AF78607B681B68EB
:100D60009B6903F00103002B21D07B681B7E012BC4
:100D700014D17B68DB69012B21D17B681B681A6861
:100D80007B681B6822F480621A607B681B685B6961
:100D9000FB607B681B689B69FB6010E07B681B68DD
:100DA0005B69FB607B681B689B69FB6007E07B6895
:100DB0001B685B69FB607B681B689B69FB6000BF0D
:100DC0001437BD465DF8047B704780B483B000AF34
:100DD00078600B46FB701346BB70FB785B00FB70C2
:100DE000BB78002B07D1FB7823F00103FB70FA7866
:100DF0007B681A6106E0FB7843F00103FB70FA7828
:100E00007B681A6100BF0C37BD465DF8047B7047F4
:100E100080B483B000AF78600B46FB70FB78012B89
:100E20001FD17B68124A934206D1124B1B6C114AA8
:100E300043F40013136414E07B680F4A934206D115
:100E40000C4B1B6C0B4A43F48003136409E07B6872
:100E50000A4A934205D1074B1B6C064A43F4000330
:100E6000136400BF0C37BD465DF8047B704700BFBC
:100E7000005400400038024000580040005C004030
:100E800080B483B000AF78600B46FB70FB78012B19
:100E900006D17B681B6843F001027B681A6005E09D
:100EA0007B681B6823F001027B681A6000BF0C3767
:100EB000BD465DF8047B704780B584B000AF7860B4
:100EC0000023FB6000237B817B681B68012118469F
:100ED000FFF79EFF7B689B799B021A46FB681343D2
:100EE000FB607B681B6819687B681B68FA680A43AB
:100EF0001A600023FB6000F049F90346294AA2FB6F
:100F000003239B0CFA681343FB607B681B685968DA
:100F1000FB6803F03F027B681B680A435A600023AA
:100F2000FB607B685B795B001A46FB681343FB60E0
:100F3000FB6843F48043FB607B681B6899687B68AF
:100F40001B68FA680A439A600023FB6000F01EF9F0
:100F500002467B681B795B00B2FBF3F37B817B89E4
:100F6000C3F30B03FA681343FB607B681B68D96902
:100F70007B681B68FA680A43DA610023FB6000F0B3
:100F800005F90346074AA2FB03239B0C0133FB60D0
:100F90007B681B68FA6802F03F021A6200BF1037D4
:100FA000BD4680BD83DE1B4380B584B000AFF860D2
:100FB000B9607A60FB70FB681B681A68FB681B6885
:100FC00042F480721A6000BFFB681B685B6903F023
:100FD0000103002BF8D0FB681B68F9780022184643
:100FE000FFF7F3FE00BFFB681B685B6903F00203B9
:100FF000002BF8D0F868FFF7ADFE12E000BFFB68E9
:101000001B685B6903F08003002BF8D0BB681A787B
:10101000FB681B681A61BB680133BB607B68013BDE
:101020007B607B68002BE9D100BFFB681B685B69B4
:1010300003F08003002BF8D000BFFB681B685B69DE
:1010400003F00403002BF8D03B7E002B07D1FB6894
:101050001B681A68FB681B6842F400721A6000BFC4
:101060001037BD4680BD80B586B000AFF860B9606E
:101070007A60FB70FB681B681A68FB681B6842F4A7
:1010800080721A6000BFFB681B685B69002BFAD096
:10109000FB681B68F97801221846FFF796FE00BF2F
:1010A000FB681B685B6903F00203002BF8D07B68C8
:1010B000012B24D1FB681B681A68FB681B6822F4AB
:1010C00080621A60F868FFF745FE00BFFB681B6886
:1010D0005B6903F04003002BF8D097F82030002B19
:1010E00007D1FB681B681A68FB681B6842F4007232
:1010F0001A60FB681B681B69DAB2BB681A707B68F0
:10110000012B33D9F868FFF725FE7B687B612AE065
:1011100000BFFB681B685B6903F04003002BF8D03D
:101120007B69022B13D1FB681B681A68FB681B687C
:1011300022F480621A6097F82030002B07D1FB68F8
:101140001B681A68FB681B6842F400721A60FB682F
:101150001B681B69DAB2BB681A70BB680133BB60DD
:101160007B69013B7B617B69002BD1D1FB689B795B
:10117000012B07D1FB681B681A68FB681B6842F4E7
:1011800080621A6000BF1837BD4680BD80B584B04C
:1011900000AF254B9B689B08DBB203F003037B7217
:1011A0007B7A002B02D1214BFB600BE07B7A012B79
:1011B00002D11F4BFB6005E07B7A022B02D100F0CD
:1011C0003DF8F860184B9B681B09DBB203F00F0376
:1011D0003B723B7A072B02D80123FB7205E03B7A76
:1011E000083B144A32F81330FB720F4B9B689B0A82
:1011F000DBB203F007033B723B7A032B02D80123D7
:10120000BB7204E03B7A043B0B4AD35CBB72FB7AB3
:10121000FA68B2FBF3F2BB7AB2FBF3F37B607B6854
:1012200018461037BD4680BD003802400024F40047
:1012300000127A00000000201000002080B400AFEF
:1012400000231846BD465DF8047B704770B50D4D10
:101250000D4C641BA4100026A64209D10B4D0C4C6A
:1012600001F02AF8641BA4100026A64205D170BD27
:1012700055F8043B98470136EEE755F8043B98478C
:101280000136F2E73424000834240008342400082E
:101290003824000802440346934200D1704703F803
:1012A000011BF9E70FB40A4B13B51C6824B1A369FD
:1012B00013B9204600F05EFA05AB049AA1680193C9
:1012C000204600F02FFC02B0BDE8104004B070478B
:1012D0001400002070B50E46054618B183690BB99D
:1012E00000F048FAAB69AC6813B9284600F042FA3E
:1012F0002C4B9C4220D16C68636EDB0705D4A3891C
:10130000980502D4A06D00F0D3FAA38919071DD562
:101310002369DBB1013EA36816F8011F013BA360FE
:1013200039BB002B38DA22460A21284600F048F85B
:10133000013011D00A2511E01B4B9C4201D1AC6851
:10134000DAE71A4B9C4208BFEC68D5E721462846ED
:1013500000F088F80028DDD04FF0FF35636EDA0723
:1013600005D4A3899B0502D4A06D00F0A2FA2846FB
:1013700070BD002B04DAA2699A4206DC0A2904D067
:1013800023685A1C22601970C5E72246284600F0DF
:1013900017F80130BFD1DFE723680A255A1C226005
:1013A0001D70DBE7C0230008E0230008A02300082D
:1013B000024B01461868FFF78DBF00BF14000020E4
:1013C000F8B50E461446054618B183690BB900F00E
:1013D000D1F9214B9C422BD16C68A369A360A389EE
:1013E0001A072FD523696BB323692068C01A636974
:1013F000F6B28342374604DC2146284600F026F93F
:1014000030BBA368013BA36023685A1C22601E7096
:1014100063690130834204D0A389DB0706D50A2E15
:1014200004D12146284600F011F988B93846F8BDA4
:101430000A4B9C4201D1AC68CFE7094B9C4208BFE4
:10144000EC68CAE72146284600F00CF80028CBD00B
:101450004FF0FF37EAE700BFC0230008E023000891
:10146000A0230008324B70B51D6806460C4625B116
:10147000AB6913B9284600F07DF92E4B9C420FD181
:101480006C68A389B4F90C2019072CD4DD0611D49B
:101490000923336042F04003A3814FF0FF303EE068
:1014A000254B9C4201D1AC68EBE7244B9C4208BF22
:1014B000EC68E6E7580712D5616B41B104F14403CB
:1014C000994202D0304600F059FA00236363A389A1
:1014D00023F02403A3810023636023692360A3898D
:1014E00043F00803A38123694BB9A38903F4207354
:1014F000B3F5007F03D02146304600F0FFF9A08904
:10150000B4F90C2010F001030AD00023A360636932
:101510005B42A361236943B910F08000BAD170BD6A
:10152000810758BF6369A360F4E70020F7E700BFB5
:1015300014000020C0230008E0230008A0230008B6
:101540008A892DE9F041054610070C4658D44B68AE
:10155000002B05DC0B6C002B02DC0020BDE8F081C9
:10156000E66A002EF9D0002312F480522F682B6017
:1015700032D0606DA3895A0705D56368C01A636BC2
:101580000BB1236CC01A00230246E66A216A284682
:10159000B047431CA38906D129681D292CD82A4AA3
:1015A000CA40D60728D500226260D9042269226089
:1015B00004D5421C01D12B6803B96065616B2F60B3
:1015C0000029CAD004F14403994202D0284600F011
:1015D000D5F900206063C1E7216A01232846B0479E
:1015E000411CC7D12B68002BC4D01D2B01D0162B5A
:1015F00001D12F60B1E7A38943F04003A381ADE798
:101600000F69002FA9D093070E6808BF4B690F60C0
:1016100018BF0023A6EB07088B60B8F1000F9CDD14
:10162000216AA66A43463A462846B047002806DCA7
:10163000A38943F04003A3814FF0FF308EE70744B6
:10164000A8EB0008E9E700BF0100402038B50B69AE
:1016500005460C4613B90025284638BD18B18369E4
:101660000BB900F087F8144B9C421BD16C68B4F99D
:101670000C30002BEFD0626ED00704D4990502D451
:10168000A06D00F015F928462146FFF759FF636E5B
:10169000DA070546E0D4A3899B05DDD4A06D00F0F0
:1016A00008F9D9E7054B9C4201D1AC68DFE7044B50
:1016B0009C4208BFEC68DAE7C0230008E02300087A
:1016C000A0230008002310B50446C0E90033C0E998
:1016D0000433836081814366C28183611946082295
:1016E0005C30FFF7D7FD054B6362054BA362054BEA
:1016F000E362054B2462236310BD00BFCD200008C8
:10170000EF200008272100084B210008014900F0C4
:10171000AFB800BF4D16000870B54A1E6825554386
:101720000E4605F1740100F079F9044640B100213C
:10173000C0E900160C30A06005F16802FFF7AAFDB1
:10174000204670BD014800F0B3B800BFD4000020AF
:10175000014800F0AEB800BFD4000020014800F0FE
:10176000A7B800BFCF000020014800F0A2B800BF1A
:10177000CF00002010B50446FFF7F0FFA3691BB1AE
:10178000BDE81040FFF7F0BFC4E912332365134BE7
:10179000134A1B68A262A34204BF0123A36120462F
:1017A00000F020F86060204600F01CF8A0602046A1
:1017B00000F018F80022E06004216068FFF782FF63
:1017C000A06801220921FFF77DFFE06802221221B3
:1017D000FFF778FF0123A361D2E700BF9C23000835
:1017E0000D170008F8B50746FFF7ACFF1E4B1E6843
:1017F000B36913B93046FFF7BDFF4836D6E9013467
:10180000013B03D533680BB33668F7E7B4F90C50E6
:10181000D5B9164BE36004F15800656600F047F84F
:10182000FFF796FFC4E90155C4E904552560A56199
:101830000822294604F15C00FFF72CFDC4E90D5590
:10184000C4E912552046F8BD6834D9E7042138466A
:10185000FFF762FF044630600028D5D1FFF778FF1C
:101860000C233B60EEE700BF9C2300080100FFFF54
:101870002DE9F8430646884600F148040027D4E9DC
:101880000195B9F1010905D52468002CF7D1384636
:10189000BDE8F883AB89012B07D9B5F90E300133C8
:1018A00003D029463046C04707436835E9E770470B
:1018B0007047704770B50E46B1F90E10002996B00A
:1018C00014461D4607DA00232B60B3891A0610D48C
:1018D0004FF480630EE06A4600F05EFC0028F2DB05
:1018E000019A02F47042A2F500535A425A412A600A
:1018F000EEE740230020236016B070BD8B8973B5DE
:101900009D0706460C4607D504F147032360236173
:101910000123636102B070BD01AB6A46FFF7CAFFE5
:1019200000990546304600F079F848B9B4F90C3012
:101930009A05EFD423F0030343F00203A381E3E706
:101940000D4BB362A389206043F08003A381009B09
:101950006361019B20615BB1B4F90E10304600F069
:101960002DFC28B1A38923F0030343F00103A381D5
:10197000A0890543A581CDE70D17000837B50029DB
:1019800048D051F8043C0190002BA1F10404B8BFE9
:10199000E41800F035FC204A01981368154633B965
:1019A0006360146003B0BDE8304000F02FBCA34278
:1019B0000BD921686218934204BF1A685B686360A0
:1019C00004BF521822602C60ECE71A465B680BB12A
:1019D000A342FAD911685518A5420BD124682144B5
:1019E0005418A3421160DDD11C685B685360214428
:1019F0001160D7E702D90C230360D3E7256861198A
:101A00008B4204BF19685B68636004BF4919216099
:101A10005460C7E703B030BD94000020F8B5CD1C7A
:101A200025F0030508350C2D38BF0C25002D064682
:101A300001DBA94203D90C2333600020F8BD00F07C
:101A4000DFFB21490A6814469CB9204F3B6823B943
:101A50002146304600F02AFB38602946304600F027
:101A600025FB431C23D10C233360304600F0CEFB12
:101A7000E3E723685B1B17D40B2B03D923601C44BB
:101A8000256004E06368A2420CBF0B6053603046DF
:101A900000F0BCFB04F10B00231D20F00700C21A6C
:101AA000CCD01B1AA350C9E722466468CCE7C41CFB
:101AB00024F00304A042E3D0211A304600F0F6FAE5
:101AC0000130DDD1CFE700BF940000209800002056
:101AD0009368013B002B10B4936008DA9469A34229
:101AE00001DB0A2903D15DF8044BFFF769BC1368D9
:101AF000581C1060197008465DF8044B7047F8B523
:101B000006460F461446D518AC4201D1002007E026
:101B100014F8011B3A463046FFF7DAFF431CF3D1B5
:101B2000F8BD00002DE9F04F0D469DB014469846D3
:101B3000064618B183690BB9FFF71CFE894B9D421D
:101B40001BD175686B6ED90705D4AB899A0502D491
:101B5000A86DFFF7ADFEAB891B0701D52B69EBB96B
:101B600029463046FFF77EFCC0B16B6EDC070ED510
:101B70004FF0FF301DB0BDE8F08F7B4B9D4201D18F
:101B8000B568DFE7794B9D4208BFF568DAE7AB89B6
:101B90009805EDD4A86DFFF78CFEE9E700230993C3
:101BA00020238DF82930CDF80C803023DFF8C08158
:101BB0008DF82A304FF0010923469A4613F8012B7D
:101BC0000AB1252AF9D1BAEB040B0BD05B462246A9
:101BD00029463046FFF793FF013000F0AA80099AAA
:101BE0005A4409929AF80030002B00F0A28000239A
:101BF0004FF0FF32CDE905230AF1010A0493079360
:101C00008DF853301A935446052214F8011B584896
:101C1000FEF7EEFA049AD8B9D10644BF20238DF816
:101C20005330130744BF2B238DF853309AF80030FC
:101C30002A2B15D0079A544600204FF00A0C214653
:101C400011F8013B303B092B4ED9B0B1079214E09B
:101C5000A0EB080309FA03F313430493A246D2E767
:101C6000039B191D1B680391002BBBBF5B4242F015
:101C7000020207930793B8BF049223782E2B0CD14E
:101C800063782A2B35D1039B1A1D1B680392002B06
:101C9000B8BF4FF0FF3302340593DFF8E4A021789A
:101CA00003225046FEF7A4FA40B14023A0EB0A00FD
:101CB00003FA00F0049B03430134049314F8011B5E
:101CC0002C488DF828100622FEF792FA00283FD003
:101CD000294B1BBB039B073323F0070308330393F4
:101CE000099B3B44099367E70CFB02320C46012039
:101CF000A5E700230134059319464FF00A0C20464E
:101D000010F8012B303A092A03D9002BC5D00591D0
:101D1000C3E70CFB012104460123F0E703AB00936A
:101D20002A46164B04A93046AFF300800746781CBC
:101D3000D6D16B6ED90705D4AB899A0502D4A86DAC
:101D4000FFF7B7FDAB895B063FF512AF099811E7C6
:101D500003AB00932A46094B04A9304600F080F8F3
:101D6000E4E700BFC0230008E0230008A023000828
:101D7000002400080A24000800000000FF1A0008E0
:101D8000062400082DE9F047164699468A680B6933
:101D9000DDF820809342B8BF1346336091F84320AA
:101DA00007460C460AB1013333602368990642BFE7
:101DB000336802333360256815F0060506D104F157
:101DC000190AE36832689B1AAB4226DC94F8432078
:101DD000131E226818BF012392062BD404F143027C
:101DE00049463846C04701301ED02368E56832684E
:101DF00003F00603042B08BFAD1AA36822690CBFC9
:101E000025EAE57500259342C4BF9B1AED1800260C
:101E10001A34B5421AD1002008E00123524649463F
:101E20003846C047013003D14FF0FF30BDE8F0879E
:101E30000135C6E7E1185A1C302081F843002244DE
:101E400094F8451082F843100233C7E70123224675
:101E500049463846C0470130E6D00136D9E7000090
:101E60002DE9FF470C469146277E0C99782F804636
:101E70009A4604F1430207D8622F0AD8002F00F0D7
:101E8000D880582F00F0A38004F1420684F84270F5
:101E90003AE0A7F16303152BF6D801A050F823F020
:101EA000F91E00080D1F0008891E0008891E000881
:101EB000891E0008891E00080D1F0008891E0008E1
:101EC000891E0008891E0008891E000819200008C4
:101ED0003D1F0008FB1F0008891E0008891E00081E
:101EE0003B200008891E00083D1F0008891E0008CD
:101EF000891E0008032000080B681A1D1B680A6071
:101F000004F1420684F842300123A3E02568086802
:101F10002E0600F104030AD505680B60002D03DAD4
:101F20002D236D4284F843305E480A2319E015F0F2
:101F3000400F05680B6018BF2DB2EFE70B682568EE
:101F4000181D0860280601D51D6802E06906FBD54A
:101F50001D8854486F2F0CBF08230A23002184F8E2
:101F600043106668A660002EA2BF216821F004011C
:101F700021600DB9002E4DD01646B5FBF3F103FBE1
:101F80001157C75D06F8017D2F46BB420D46F4D9B7
:101F9000082B0BD12368DF0708D5236961689942B4
:101FA000DEBF302306F8013C06F1FF36921B2261AA
:101FB000CDF800A04B4603AA21464046FFF7E2FEBB
:101FC00001304CD14FF0FF3004B0BDE8F087354808
:101FD00084F8457023680E681F0656F8045B0E608F
:101FE00014D5D90744BF43F0200323601DB92368EB
:101FF00023F0200323601023B0E7236843F020037D
:1020000023607823284884F84530E3E75E0648BF1C
:10201000ADB2E6E71646BBE70B68266860691D1D92
:102020000D6035061B6801D5186002E07106FBD50E
:102030001880002323611646BAE70B681A1D0A6050
:102040001E68626800213046FEF7D2F808B1801B96
:10205000606063682361002384F84330A8E7236944
:10206000324649464046D0470130ABD023689B07F3
:1020700013D4E068039B9842B8BF1846A4E7012335
:10208000324649464046D04701309BD00135E3688F
:1020900003995B1AAB42F2DCEBE7002504F1190669
:1020A000F5E700BF112400082224000838B5064DCA
:1020B0000023044608462B6000F0E8F8431C02D1D8
:1020C0002B6803B1236038BDD800002010B50C4642
:1020D000B1F90E1000F0A0F80028ABBF636DA38922
:1020E0001B1823F48053ACBF6365A38110BD2DE999
:1020F000F0411F468B89DB0505460C46164605D583
:10210000B1F90E100223002200F068F8A389B4F997
:102110000E1023F48053A38132463B462846BDE887
:10212000F04100F017B810B50C46B1F90E1000F0F0
:1021300055F8431CA38915BF606523F4805343F40D
:102140008053A38118BFA38110BDB1F90E1000F018
:1021500013B8000038B5074D044608461146002262
:102160002A601A4600F0A0F8431C02D12B6803B184
:10217000236038BDD800002038B5064D0023044642
:1021800008462B6000F05AF8431C02D12B6803B1BB
:10219000236038BDD800002038B5074D0023044621
:1021A000084611462B6000F051F8431C02D12B6801
:1021B00003B1236038BD00BFD800002038B5064DFC
:1021C0000023044608462B6000F048F8431C02D167
:1021D0002B6803B1236038BDD800002038B5074D07
:1021E00004460846114600222A601A4600F03EF8CE
:1021F000431C02D12B6803B1236038BDD8000020F6
:102200000148FFF755BB00BFD00000200148FFF791
:1022100050BB00BFD000002038B5074D044608462B
:10222000114600222A601A4600F028F8431C02D109
:102230002B6803B1236038BDD8000020024B582220
:102240001A604FF0FF307047D8000020024B582230
:102250001A604FF0FF307047D8000020024B582220
:102260001A600020704700BFD8000020024B58229F
:102270001A604FF0FF307047D8000020024B582200
:102280001A604FF0FF307047D8000020044B1968E7
:10229000024609B903491960186802441A60704778
:1022A0009C000020E0000020024B58221A604FF0F2
:1022B000FF307047D8000020F8B500BFF8BC08BC5C
:1022C0009E467047F8B500BFF8BC08BC9E467047F4
:1022D00053756E64617900004D6F6E646179000022
:1022E00054756573646179005765646E65736461E4
:1022F0007900000054687572736461790000000011
:102300004672696461790000536174757264617921
:1023100000000000525443207465737400000000F4
:1023200052544320696E6974206861732066616944
:102330006C656400504D0000414D000043757272A1
:10234000656E742074696D65203D202573202573AA
:102350000A00000043757272656E742074696D65C1
:10236000203D2025730A000043757272656E74204B
:1023700064617465203D202573203C25733E0A006E
:10238000D0220008D8220008E0220008E822000835
:10239000F422000800230008082300081800002089
:1023A000000000000000000000000000000000002D
:1023B000000000000000000000000000000000001D
:1023C000000000000000000000000000000000000D
:1023D00000000000000000000000000000000000FD
:1023E00000000000000000000000000000000000ED
:1023F00000000000000000000000000000000000DD
:10240000232D302B2000686C4C00656667454647DD
:102410000030313233343536373839414243444560
:1024200046003031323334353637383961626364CF
:0424300065660000DD
:04243400D5010008C6
:04243800B1010008E6
:10243C0002000400080010004000800000010002AF
:10244C00020408101800002000000000C02300083F
:10245C00E0230008A023000800000000000000009A
:10246C000000000000000000000000000000000060
:10247C000000000000000000000000000000000050
:10248C000000000000000000000000000000000040
:10249C000000000000000000000000000000000030
:0824AC00000000000000000028
:04000005080004EDFE
:00000001FF
